:020000040800F2
:100000009005002005010008631600084714000849
:100010006116000871010008DD1C000800000000E6
:10002000000000000000000000000000411900086E
:10003000310200080000000065160008431900089E
:100040001F0100081F0100081F0100081F01000810
:100050001F0100081F0100081F0100081F01000800
:100060001F0100081F0100081F0100081F010008F0
:100070001F0100081F0100081F0100081F010008E0
:100080001F0100081F0100081F0100081F010008D0
:100090001F0100081F0100081F0100081F010008C0
:1000A0001F0100081F0100081F0100081F010008B0
:1000B0001F0100081F0100081F0100081F010008A0
:1000C0001F0100081F0100081F0100081F01000890
:1000D0001F010008D11C00081F0100081F010008B3
:1000E0001F0100081F0100081F010008DFF810D0E1
:1000F00000F02CF800480047691D0008AFF30080AD
:10010000900500200648804706480047FEE7FEE7C6
:10011000FEE7FEE7FEE7FEE7FEE7FEE7FEE7FEE7B7
:10012000A5190008ED000008D2B201E000F8012B8B
:10013000491EFBD270470022F6E710B513460A4667
:1001400004461946FFF7F0FF204610BD064C074D48
:1001500006E0E06840F0010394E807009847103497
:10016000AC42F6D3FFF7C6FF001E0008201E0008B1
:10017000FEE7000008B500228DF8000002210548C6
:1001800000F0CAF94FF6FF7301226946024800F0F9
:100190005BFD08BD000801401400002070B5054655
:1001A00000F00EF84FF448542E0A304600F02CF8B8
:1001B000E8B200F029F8641E2404240CF5D170BDC7
:1001C00010B52A20FFF7D6FF002000F01DF81A20F6
:1001D00000F01AF8002000F017F8692000F014F879
:1001E0002B20FFF7C7FF002000F00EF8012000F0E1
:1001F0000BF8002000F008F8A02000F005F8BDE89A
:1002000010402C20FFF7B6BF08B501228DF8000082
:100210000221054800F080F94FF6FF73012269467C
:10022000024800F011FD08BD000801401400002044
:10023000704772B6FEE710B590F82110002202292F
:1002400005D00421816380F82020012010BD0168C1
:100250000B6823F00E030B6001680B6823F00103A9
:100260000B6090F84030C46B012101FA03F3636026
:1002700080F8211080F82020104610BD10B590F8AD
:1002800021100024022903D00421816301243DE0D0
:1002900001680A6822F00E020A6001680A6822F00A
:1002A00001020A601A4A0168914201D1012121E04C
:1002B000174A1432914201D110211BE0144A28320E
:1002C000914201D1891515E0114A3C32914201D188
:1002D00089140FE00E4A5032914202D14FF480311E
:1002E00008E00B4A6432914202D14FF4801101E0E0
:1002F0004FF08071064A083A5160012180F82110C0
:10030000002180F82010416B01B18847204610BDC4
:100310000800024070B5044600F004F90546601C70
:1003200002D004480078044400F0FCF8401BA042CE
:10033000FAD370BD000000202DE9F84FDFF8B89126
:100340000024A9F1040B23460F2709F1040AABF19D
:10035000040EC9E00125A5402A40AA427DD1674E7E
:10036000D1F804C0ACEB0608B44532D014DCBCF1C3
:10037000030F3AD009DCBCF1000F2AD0BCF1010F09
:100380001CD0BCF1020F31D11DE0BCF1110F17D010
:10039000BCF1120F2AD119E0B8F5881F19D006DC7C
:1003A000B8F5803F15D0B8F5801F1FD111E0B8F522
:1003B000001F0ED0B8F5041F18D10AE0CB6815E075
:1003C000CB681B1D12E0CB6808330FE0CB680C3301
:1003D0000CE08B682BB1012B4FF0080303D0456173
:1003E00004E0042302E0056100E00023FF2A01D8B5
:1003F000064601E000F104064FEA840501D9A5F1A3
:100400002005D6F8008007FA05FC28EA0C0803FA54
:1004100005F548EA0508C6F800804D68ED0062D58C
:10042000374DAE6946F00106AE61AD6924F00306B2
:1004300005F001050095334D06EB050CDCF808507E
:10044000A607360F07FA06F825EA0805DFF8B88090
:10045000404503D14FF0000817E044E0DFF8AC80DE
:10046000404502D14FF001080FE0DFF8A48040457D
:1004700002D14FF0020808E0DFF89880404502D131
:100480004FF0030801E04FF0040808FA06F848EAC4
:100490000508CCF808804D68D9F80060ED024D469B
:1004A00001D5164300E096432E604D68DAF80060EF
:1004B000AD02554601D5164300E096432E604D68C7
:1004C000DBF80060AD035D4601D5164300E09643BE
:1004D0002E604D68DEF80060ED03754601D51643C9
:1004E00000E096432E60641C0D682A46E5407FF4C8
:1004F00031AFBDE8F88F0000080401400000111082
:10050000001002400000014000080140000C0140C2
:1005100000100140001401400AB101617047090454
:10052000FBE70000014880687047000000000020E1
:100530000248816802781144816070470000002001
:10054000074810B5016841F010010160032000F078
:1005500075F80F2000F006F800F024F8002010BD18
:100560000020024070B50D4D04464FF47A71287892
:10057000B1FBF0F00A490968B1FBF0F000F01BFC98
:1005800048B9102C07D200222146501E00F036F840
:1005900000206C6070BD012070BD000000000020D4
:1005A0000C0000200C4808B5816941F0010181610F
:1005B000816901F001010091C16941F08051C1617F
:1005C000C06900F0805000900448416821F0E0616B
:1005D00041F00071416008BD001002400000014080
:1005E000002809DB00F01F02012191404009800032
:1005F00000F1E020C0F8001170470000F0B40E4B8D
:100600001B680C46C3F30223C3F10705042D00D970
:100610000425191D072901D2002300E0DB1E012655
:1006200006FA05F1491E214099409E40761E16406B
:100630003143F0BC01F05CBB0CED00E0064900F07A
:10064000070208684FF6FF03184040EA0220034AF9
:1006500010430860704700000CED00E00000FA0550
:100660002DE9F0470F46050061D0434E306800F099
:100670000700B84209D2306820F0070038433060E4
:10068000306800F00700B84251D128683B4C810720
:1006900012D5400703D5606840F4E06060602878B8
:1006A000000703D5606840F4605060606068A96826
:1006B00020F0F000084360602878C00728D0686800
:1006C000012810D02168022810D0890700292EDACD
:1006D000616821F0030101436160FFF723FF804659
:1006E00041F288390DE021688903EFE78901EDE7E0
:1006F000FFF718FFA0EB0801494502D90320BDE828
:10070000F0876068696800F00C00B0EB810FEFD1F2
:10071000306800F00700B8420BD9306820F00700BD
:1007200038433060306800F00700B84201D0012043
:10073000E5E72878400705D56068E96820F4E060BF
:10074000084360602878000706D56068296920F4AE
:10075000605040EAC100606000F038F86168084A03
:10076000C1F30311515CC84006490860064800689F
:10077000FFF7F8FE0020C2E7002002400010024010
:10078000E61D00080C000020040000200448054974
:1007900000684968044AC1F30221515CC8407047AF
:1007A0000C00002000100240F61D00080448054916
:1007B00000684968044AC1F3C221515CC8407047CF
:1007C0000C00002000100240F61D00080E4A51687F
:1007D0000E4801F00C03042B11D0082B0FD10C484C
:1007E000C1F38343C903C05C0AD55168084AC1F309
:1007F0004041921E515C054A5043B0FBF1F07047F6
:1008000004494843704700000010024000127A007B
:10081000D61D000800093D002DE9F84F040070D0F6
:100820002078C04DC00749D06868C0F38100012816
:1008300007D06868C0F38100022809D16868C00346
:1008400006D52868800339D560680028E7D035E0F0
:100850006068B0F5803F0BD010B1B0F5A02F11D07B
:10086000286820F480302860286820F4802002E086
:10087000286840F480302860606890B1FFF752FE2D
:1008800006460AE0286840F480202860F0E700BFB0
:10089000FFF748FE801B642873D828688003F7D5CB
:1008A0000CE0FFF73FFE064605E000BFFFF73AFE0B
:1008B000801B6428F0D828688003F7D420789A4EEB
:1008C00080074FF001094FF0000839D5686810F033
:1008D0000C0F07D06868C0F38100022809D168684E
:1008E000C00306D42868800714D52069012808D1E0
:1008F00010E02069B0B1C6F80090FFF713FE07467C
:1009000005E00AE1FFF70EFEC01B0228C4D82868E4
:100910008007F7D52868616920F0F80040EAC10037
:1009200028600DE0C6F80080FFF7FCFD074604E0F4
:10093000FFF7F8FDC01B022823D828688007F7D4EA
:10094000207800072CD57948A169D9B1C0F800906A
:10095000FFF7E8FD074604E0FFF7E4FDC01B0228AF
:100960000FD8686A8007F7D571484FF4FA510068CC
:10097000B0FBF1F0009000BF0098411E0091FAD248
:100980000EE080E0C0F80080FFF7CCFD074604E0F1
:10099000FFF7C8FDC01B022875D8686A8007F7D426
:1009A0002078400760D5E8690027C00008D4E869CE
:1009B00040F08050E861E869012700F08050009025
:1009C0005C480168C90513D40168834641F480710D
:1009D0000160FFF7A7FD824606E000BFFFF7A2FD1A
:1009E000A0EB0A0064284ED8DBF80000C005F5D55E
:1009F000E06801280AD008B1052813D0286A20F041
:100A000001002862286A20F0040002E0286A40F011
:100A100001002862E06841F2883B98B1FFF782FD4F
:100A200082460BE0286A40F004002862EEE700BF2F
:100A3000FFF778FDA0EB0A0159455AD8286A8007CC
:100A4000F6D50CE0FFF76EFD824605E0FFF76AFD84
:100A5000A0EB0A0159454CD8286A8007F6D41FB18B
:100A6000E86920F08050E861E06988B36968C1F303
:100A70008101022944D00228C6F8608004D0FFF723
:100A800051FD044638E034E0FFF74CFD074604E032
:100A9000FFF748FDC01B02282BD828688001F7D437
:100AA000206AB0F5803F05D16868A16820F4003065
:100AB00008436860D4E908010843696821F47411A7
:100AC00008436860C6F86090FFF72CFD044606E016
:100AD00025E000BFFFF726FD001B022809D8286883
:100AE0008001F7D51BE000BFFFF71CFD001B0228AB
:100AF00002D90320BDE8F88F28688001F4D40EE005
:100B00000128F7D06868226A00F48031914204D14C
:100B1000616A00F47010884201D00120EAE70020E9
:100B2000E8E7000000100240000042428004424218
:100B30000C0000200070004070B5040009D0606A0D
:100B4000002540B125616561A56294F8510040B16E
:100B50000CE0012070BD6068B0F5827FF4D0E561E3
:100B6000F2E784F85050204600F040F8022084F864
:100B700051002068016821F040010160A0882189AE
:100B800000F4827001F404410843A18901F400617A
:100B90000843217C01F002010843217D01F001019D
:100BA0000843218B01F400710843217F01F03801D3
:100BB000084394F8201001F080010843218D01F4CE
:100BC0000051084321680860A069042101EA10402F
:100BD000216848602068C16921F40061C1616565D0
:100BE000012084F85100002070BD000000B585B0E0
:100BF0000021009101910291039100680F49884200
:100C00001AD10F48816941F480518161816901F4F1
:100C100080510491816941F00401816180696946D4
:100C200000F004000490B020009002200190032006
:100C300003900448FFF780FB05B000BD0030014081
:100C400000100240000801402DE9F84F044690F8DA
:100C500050000026984615468A4601280CD00127E8
:100C600084F85070FFF75EFC814694F85100B3465B
:100C7000012804D002269AE00220BDE8F88FBAF1DC
:100C8000000F6FD0002D6DD0032084F85100C4F800
:100C900054B0C4F830A0A586E586C4F838B0A4F8EE
:100CA0003CB0A4F83EB0C4F844B0C4F840B0A0686A
:100CB000B0F5004F09D12068016821F040010160C2
:100CC0002068016841F4804101602068016849069C
:100CD00003D4016841F040010160E068B0F5006FA5
:100CE000606803D058B3012D29D049E008B1012D27
:100CF0001FD1206B21680088C86006E020688168E9
:100D0000890709D5216B0988C160206B801C20638D
:100D1000E08E401EE0860CE0FFF704FCA0EB09012A
:100D2000414503D3B8F1FF3F03D006E0B8F1000F0F
:100D300003D0E08E0028E1D125E0032635E0206BCA
:100D400021680078087306E02068816889070AD561
:100D5000216B09780173206B401C2063E08E401EDC
:100D6000E0860DE01FE0FFF7DDFBA0EB0901414548
:100D700003D3B8F1FF3F03D0DFE7B8F1000FDCD0B9
:100D8000E08E0028E0D14A464146204600F06BFC48
:100D900008B120206065A06818B92068C168806823
:100DA0000090606D08B1012601E084F8517084F86C
:100DB00050B0304661E710B5401EB0F1807F01D3DE
:100DC000012010BD4FF0E02460610F21601700F09A
:100DD0008FFF0020A06107202061002010BD0000CF
:100DE00070B590F83C20012A26D0012480F83C40C0
:100DF000022280F83D2003685A689D6822F0700640
:100E00000A6832435A600D4B02689A4208D0B2F128
:100E1000804F05D00A4B9A4202D00A4B9A4204D125
:100E2000496825F080031943916080F83D40002116
:100E300080F83C10084670BD022070BD002C0140B7
:100E4000000400400008004010B5040003D094F8EE
:100E50003D0010B107E0012010BD002084F83C00E7
:100E6000204600F01FF8022084F83D00211D206874
:100E700000F09AFD012084F8460084F83E0084F8D2
:100E80003F0084F8400084F8410084F8420084F870
:100E9000430084F8440084F8450084F83D000020B5
:100EA00010BD000000B585B00021009101910291B4
:100EB000039101681948B1F1804F26D0184A914238
:100EC00021D1C16941F00201C161C16901F0020192
:100ED0000491816941F0080181618069694600F0EF
:100EE00008000490202000900220019003900D48FB
:100EF000FFF722FA0C48416821F4406141F0E061BB
:100F000041F40061416005B000BDC16941F00101DB
:100F1000C161C06900F001000490F4E700100240D4
:100F200000040040000C01400000014070B5044680
:100F300090F83C000025012817D0012684F83C6079
:100F4000022084F83D002068826822F0770222F4B3
:100F50007F4282600868502838D00DDC20284FD0AE
:100F600005DC90B3102811D14AE0022070BD302872
:100F700046D040280AD13BE060282FD070280DD001
:100F8000B0F5805F03D0B0F5005F12D0012584F882
:100F90003D60002084F83C00284670BDCB68D1E954
:100FA0000121206800F036FD2068816841F077015A
:100FB00009E0CB68D1E90121206800F02BFD206811
:100FC000816841F480418160E1E719E0CA684968BD
:100FD000206800F031FD5021206806E0CA684968A9
:100FE000206800F03AFD6021206800F01DFDCEE78A
:100FF000CA684968206800F01FFD40212068F4E7B6
:10100000226801461046F0E770477047F8B501685E
:1010100004460868CA684B6910F00F0F4FF00005CE
:1010200059D003F0010602F49077374365D0C10729
:1010300005D0D10503D5616C41F001016164410720
:1010400005D5D90703D0616C41F0020161648107C5
:1010500005D5D90703D0616C41F004016164010733
:1010600007D502F02001314303D0616C41F0080143
:101070006164616C00293AD0800604D5900602D5DF
:10108000204600F02BFD20684069616CC0F38010A1
:10109000090700D460B3204600F0F9FC20684069DD
:1010A000400621D52068143050E8001F21F040018F
:1010B00040E80012002AF5D1E06BA8B16D49416308
:1010C000E06BFFF7DBF8002811D0E06B416B01B05B
:1010D000BDE8F040084783060FD593060DD520469E
:1010E000BDE8F84000F0FABC2046FFF78EFFF8BDDF
:1010F0002046FFF78AFF6564F8BD266B2023012E8A
:101100007CD1C6067AD5D60678D50868486800909E
:1011100048694FF00206400640D5E16B0868406818
:101120000004000CE8D0A28D8242E5D9E0858869F0
:1011300020282DD020680C3050E8001F21F4807149
:1011400040E80012002AF5D12068143050E8001F52
:1011500021F0010140E80012002AF5D12068143086
:1011600050E8001F21F0400140E80012002AF5D1AC
:1011700084F84230256320680C3050E8001F21F0CD
:10118000100140E80012002AF5D1E06BFFF753F898
:101190006663A08DE18D401A81B22AE0A08DE18DB9
:1011A000401A81B2E08D0028A6D00029A4D0226880
:1011B0000C3252E8000F20F4907042E80007002F34
:1011C000F5D12068143050E8002F22F0010240E8E9
:1011D0000027002FF5D184F84230256320680C30B9
:1011E00050E8002F22F0100240E80023002BF5D138
:1011F00066632046FFF708FFF8BDFFE705062BD51D
:10120000150629D594F841002128F5D1A068B0F53C
:10121000805F01D12069B0B1206A411C2162216840
:1012200000784860E08C401E0004000CE084E3D1AC
:101230002068C16821F08001C1602068C16841F068
:101240004001C160D8E7206A0088C0F30800486008
:10125000206A801C2062E5E74006CDD55006CBD53C
:10126000CA68204622F04002CA6084F8413000F08B
:10127000E9F8C1E77F1A000870B5040004D094F8BB
:101280004100002510B106E0012070BD84F84050F7
:10129000204600F023F8242084F841002068C1682B
:1012A00021F40051C160204600F07AFC20680169F9
:1012B00021F4904101612068416921F02A014161D6
:1012C0002068C16841F40051C1606564202084F841
:1012D000410084F842006563002070BD70B586B09F
:1012E000002400940194029403942B4E03682B492C
:1012F000022003222A4DB34229D18B6943F4804353
:101300008B618B6903F4804304938B6943F004037E
:101310008B618969039201F0040104910102CDE916
:10132000001069462846FFF707F82815CDE90004A4
:10133000694628460294FEF7FFFF00221146252049
:10134000FFF75CF92520FFF74BF906B070BD154E8D
:10135000B342FAD1CB6943F40033CB61CB6903F4D8
:10136000003304938B6943F004038B618969039212
:1013700001F0040104910421CDE9001069462846DA
:10138000FEF7DAFF0820CDE90004694628460294FA
:10139000FEF7D2FFD9E700000038014000100240FC
:1013A000000801400044004070472DE9F84304461E
:1013B00090F841001F4616460D46202802D0022014
:1013C000BDE8F8837DB176B100206064212084F807
:1013D0004100FFF7A7F8A6848046E684A068B0F530
:1013E000805F02D003E00120EAE7206910B12E46B9
:1013F00000250EE000260CE08021204600F02CFCA9
:10140000A0B9AEB116F8010B21684860E08C401E0F
:10141000E084E08C43464FF0000200970028EBD1B7
:101420004FF04001204600F017FC30B10320C7E721
:1014300035F8020BC0F30800E6E7202084F84100ED
:101440000020BDE77047FEE7F0B585B000251F48D6
:101450000095019502950395816941F02001816114
:10146000816901F020010491816941F004018161E9
:10147000816901F004010491816941F008018161F1
:101480008069134E00F0080004900022422130468B
:10149000FFF742F80F4F002218213846FFF73CF8BB
:1014A000422001248DE8310002256946304603952B
:1014B000FEF742FF1820CDE9000469463846CDE921
:1014C0000245FEF739FF05B0F0BD000000100240F4
:1014D00000080140000C0140104810B50E490160A1
:1014E0004FF48271416000218160C1604FF480221D
:1014F0000161C0E905120822C0E907214162816249
:101500000A21C162FFF718FB002803D0BDE8104094
:10151000FEF78FBE10BD0000003001401400002017
:1015200010B586B0002417480094019402940394E7
:1015300004944FF080410594016040F2CF21C0E94E
:1015400001146321C0E9031480218161FFF77CFC51
:1015500008B1FEF76EFE4FF48050009069460948CE
:10156000FFF7E4FC08B1FEF764FE049404A9054803
:101570000594FFF735FC002801D0FEF75AFE06B0AF
:1015800010BD00006C00002010B586B00024174884
:101590000094019402940394049413490594016007
:1015A00040F2CF21C0E901146321C0E90314802176
:1015B0008161FFF749FC08B1FEF73BFE4FF4805014
:1015C000009069460948FFF7B1FC08B1FEF731FE0B
:1015D000049404A905480594FFF702FC002801D0F3
:1015E000FEF727FE06B010BD00040040B400002046
:1015F0000C4810B50A4901604FF4E1314160002107
:1016000081600C22C160C0E904128161C161FFF7F1
:1016100033FE002803D0BDE81040FEF70ABE10BD1F
:1016200000380140FC0000200C4810B50A49016058
:101630004FF4E1314160002181600C22C160C0E9BA
:1016400004128161C161FFF717FE002803D0BDE8D5
:101650001040FEF7EEBD10BD0044004044010020E4
:10166000FEE7FEE7704738B50B46009204460022BD
:10167000802100F009F8002804D0606D40F02000BF
:101680006065032038BD00002DE9F8431E469146F1
:1016900088460446089DFEF745FF401B351AFEF7B5
:1016A00041FF074625480068C0F3CB30684338E067
:1016B000701C37D0FEF736FFC01BA84203D215B10D
:1016C000009860B32CE02068416821F0E00141609F
:1016D0006068B0F5827F0BD1A068B0F5004F02D0F2
:1016E000B0F5806F04D12068016821F040010160ED
:1016F000A06AB0F5005F09D12068016821F40051AB
:1017000001602068016841F400510160012084F803
:101710005100002084F850000320BDE8F883002524
:10172000401E00902068816838EA010004D0002142
:101730004945BDD10020F0E70121F9E70C00002068
:1017400010B57E4C012240212046FEF7E5FE052023
:10175000FEF7E0FD002240212046FEF7DDFE0520D9
:10176000FEF7D8FD012240212046FEF7D5FE1420C9
:10177000FEF7D0FD1120FEF7FDFC7820FEF7CAFD34
:10178000B120FEF7F7FC0520FEF73EFD3C20FEF7FA
:101790003BFD3C20FEF738FDB220FEF7EBFC0520B8
:1017A000FEF732FD3C20FEF72FFD3C20FEF72CFD1E
:1017B000B320FEF7DFFC0520FEF726FD3C20FEF7F8
:1017C00023FD3C20FEF720FD0520FEF71DFD3C20FB
:1017D000FEF71AFD3C20FEF717FDB420FEF7CAFC09
:1017E0000320FEF711FDC020FEF7C4FC2820FEF701
:1017F0000BFD0820FEF708FD0420FEF705FDC120C3
:10180000FEF7B8FCC020FEF7FFFCC220FEF7B2FCDA
:101810000D20FEF7F9FC0020FEF7F6FCC320FEF7D2
:10182000A9FC8D20FEF7F0FC2A20FEF7EDFCC42079
:10183000FEF7A0FC8D20FEF7E7FCEE20FEF7E4FCAF
:10184000C520FEF797FC1A20FEF7DEFC3620FEF7D7
:1018500091FCC020FEF7D8FCE020FEF78BFC0420B2
:10186000FEF7D2FC2220FEF7CFFC0720FEF7CCFCCF
:101870000A20FEF7C9FC2E20FEF7C6FC3020FEF73A
:10188000C3FC2520FEF7C0FC2A20FEF7BDFC282063
:10189000FEF7BAFC2620FEF7B7FC2E20FEF7B4FCBC
:1018A0003A20FEF7B1FC0020FEF7AEFC0120FEF767
:1018B000ABFC0320FEF7A8FC1320FEF7A5FCE120FB
:1018C000FEF758FC0420FEF79FFC1620FEF79CFC58
:1018D0000620FEF799FC0D20FEF796FC2D20FEF762
:1018E00093FC2620FEF790FC2320FEF78DFC27209A
:1018F000FEF78AFC2720FEF787FC2520FEF784FCF4
:101900002D20FEF781FC3B20FEF77EFC0020FEF739
:101910007BFC0120FEF778FC0420FEF775FC132009
:10192000FEF772FC3A20FEF725FC0520FEF76CFC62
:10193000BDE810402920FEF71DBC00000008014052
:101940007047FEF7F5BD30B58FB028216846FEF729
:10195000F2FB14210AA8FEF7EEFB01210804CDE9F1
:1019600000100024029402250491CDE907504FF4A1
:10197000E01009906846FEF74FFF08B172B6FEE727
:101980000F20CDE90A054FF48060CDE90C4002211B
:101990000AA80E94FEF764FE002801D072B6FEE796
:1019A0000FB030BD70470000F0B50268164B174C01
:1019B000174D4FF08047984205D0B84203D0A0425F
:1019C00001D0A84203D122F070064A6832439842FF
:1019D00005D0B84203D0A04201D0A84203D122F4DE
:1019E0004074CA6822434C6922F08002224302609C
:1019F0008A68C2620A688262984201D109690163F9
:101A000001214161F0BD0000002C014000040040B4
:101A10000008004010B5846842EA032224F47F44A1
:101A20000A432243826010BD826822F070020A439A
:101A300042F007018160704710B5036A046A24F020
:101A400001040462846924F0F00444EA021423F0DF
:101A50000A020A438461026210BD10B5036A046A77
:101A600024F010040462846923F0A00324F4704479
:101A700044EA023243EA01118261016210BD10B5ED
:101A8000406A0021C185C184FFF7BFFA10BD01681B
:101A90000C3151E8002F22F4907241E80023002B12
:101AA000F5D10168143151E8002F22F0010241E81C
:101AB0000023002BF5D1016B012909D101680C31FC
:101AC00051E8002F22F0100241E80023002BF5D14D
:101AD000202180F8421000210163704708B590F87A
:101AE0004210222901D0022008BD82684FF48053A1
:101AF0009A4201D1016921B1816A9A421BD04AB14F
:101B00000AE00268816A5268C2F308020A80816AA8
:101B1000891C08E0026972B10268526802F07F0213
:101B20000A70816A491C8162C18D491E0904090C31
:101B3000C18503D01BE002685268F1E70168CA68FA
:101B400022F02002CA600168CA6822F48072CA606A
:101B500001684A6922F001024A61202180F842109E
:101B600000214163026B012A03D0FFF71DFC002016
:101B700008BD016301680C3151E8002F22F010020A
:101B800041E80023002BF5D101680A68D20602D58E
:101B90000A6849680091818DFFF736FAE7E700008F
:101BA00070B5044600680169E26821F440511143B0
:101BB00001612169A0680843616908432168CA6816
:101BC00041F20C639A430243CA6020684169A269EA
:101BD00021F44071114341611E492068884202D1BD
:101BE000FEF7E4FD01E0FEF7D1FD00EBC00101EBE3
:101BF0000012606864218000B2FBF0F3B3FBF1F3E4
:101C00006FF018067343B2FBF0F5B2FBF0F605EB8C
:101C10008305322303EB0515B5FBF1F5B6FBF1F6B1
:101C200005F0F00505EB0615B2FBF0F6B2FBF0F09F
:101C3000B0FBF1F06FF01802504306EB800003EBAD
:101C40000010B0FBF1F0216800F00F00284488601C
:101C500070BD0000003801402DE9F041984617465C
:101C60000E460446069D27E0681C25D02DB1FEF7E0
:101C700059FCA0EB0800A8421ED920680C3050E89F
:101C8000001F21F4D07140E80012002AF5D120682D
:101C9000143050E8001F21F0010140E80012002A32
:101CA000F5D1202084F8410084F84200002084F817
:101CB00040000320BDE8F0812068006836EA00009B
:101CC00004D00020B842CFD00020F3E70120F9E78C
:101CD0000148FFF79BB90000FC000020FEE7000070
:101CE000014A024900F023B8511D000810000020ED
:101CF0000907090E002804DB00F1E02080F8001439
:101D0000704700F00F0000F1E02080F8141D7047CC
:101D100002E008C8121F08C1002AFAD170477047B4
:101D2000002001E001C1121F002AFBD170472DE9FC
:101D3000F04116460F460446002503E03946B047F9
:101D4000641C6D1C20780028F8D12846BDE8F0817D
:101D500013B54FF6FF73012269460248FFF725FBD2
:101D600000981CBDFC000020FEF7EAFBFFF7EBFD2E
:101D7000FFF76AFBFFF7D4FBFFF706FCFFF738FC21
:101D8000FFF7AAFBFFF750FCFFF7DAFC40F60A74F6
:101D90004FF6FA754FF47F66FF20FEF7FFF901203A
:101DA000FEF7B8FA2046FEF7F9F90120FEF7B2FA7D
:101DB0002846FEF7F3F90120FEF7ACFA3046FEF7AD
:101DC000EDF902A0FFF78CFFE6E7000061616161B9
:101DD000610D0A00010202030405060708090A0B47
:101DE0000C0D0E0F1010000000000000000001029A
:101DF00003040607080900000000010203040000B4
:101E0000201E00080000002014000000101D000823
:101E1000341E0008140000207C050000201D00086E
:101E20000100000010000000000000000024F40089
:041E300000000000AE
:04000005080000ED02
:00000001FF
