:0300000002026693
:0C026600787FE4F6D8FD75810D02015E82
:1001B8007F2A7E00120289E4FFFE12025C7F1A7E0B
:1001C8000012025CE4FFFE12025C7F697E001202EC
:1001D8005C7F2B7E00120289E4FFFE12025C7F0125
:1001E8007E0012025CE4FFFE12025C7FA07E001219
:0901F800025C7F2C7E00020289EA
:040201008E088F09CB
:100205001201B8750A32750B00E508FF7E0012026F
:100215005CAF09AE0812025CE50B150B7002150AFE
:0B022500D3E50B9400E50A940050DEC6
:0102300022AB
:10015E00439204439208439210439220E4F5914354
:10016E00B280F5B1120003E4FFFE1202011201B8D3
:10017E007F0F7EF01202017FFF7E001202017F0AC6
:10018E007E001202317F0A7E0F1202017F0A7E006C
:10019E001202317FFA7EFF1202017F0A7E001202E6
:0A01AE00317FF07E0F12020180CDB8
:0B027E0075CED0C295D29375CDC02282
:0C0272008FCFE5CD548060FA75CDC0221E
:0A028900C2B7C292120272D2922292
:0D024F001202897F0512025C7F3C12025CE6
:0A025C00D2B7C292120272D29222AF
:1000030012027ED2947F057E00120231C2947F05D4
:100013007E00120231D2947F147E001202317F11CE
:100023007E001202897F781202317FB17E001202B4
:100033004F7FB212024F7FB312024F1202527FB4AC
:100043001202897F0312025C7FC01202897F281289
:10005300025C7F0812025C7F0412025C7FC1120201
:10006300891F12025C7FC21202897F0D12025CE4B7
:10007300FF12025C7FC31202897F8D12025C7F2A0A
:1000830012025C7FC41202897F8D12025C7FEE1222
:10009300025C7FC51202897F1A12025C7F3612024C
:1000A300897FC012025C7FE01202897F0412025C26
:1000B3007F2212025C7F0712025C7F0A12025C7FBE
:1000C3002E12025C7F3012025C7F2512025C7F2AB3
:1000D30012025C7F2812025C7F2612025C7F2E12C2
:1000E300025C7F3A12025CE4FF12025C0F12025CB4
:1000F3007F0312025C7F1312025C7FE11202897F8D
:100103000412025C7F1612025C7F0612025C7F0DF2
:1001130012025C7F2D12025C7F2612025C7F231287
:10012300025C7F2712025C12025C7F2512025C7F55
:100133002D12025C7F3B12025CE4FF12025C0F1281
:10014300025C7F0412025C7F1312025C7F3A12028C
:0B015300897F0512025C7F29020289EF
:10023100D3EF9400EE940040147D407C06ED1D70D8
:0D024100011CED4C70F7EF1F70E61E80E30E
:01024E00228D
:00000001FF
