:020000040800F2
:1000000088070020D900000859250008F7200008BB
:1000100000000000000000000000000000000000E0
:10002000000000000000000000000000332900086C
:1000300000000000000000005B25000835290008D2
:10004000EB000008EB000008EB000008EB000008E4
:10005000EB000008EB000008EB000008EB000008D4
:1000600000000000EB000008EB000008EB000008B7
:10007000EB000008A5290008EB000008EB000008D1
:10008000EB000008EB000008EB000008EB000008A4
:1000900000000000EB000008EB000008EB00000887
:1000A000EB000008EB000008EB000008EB00000884
:1000B000EB000008EB00000800000000000000005A
:1000C0000448854600F090F800480047D132000807
:1000D000C046C046880700200448804704480047BF
:1000E000FEE7FEE7FEE7FEE7FEE7FEE7A3290008DE
:1000F000C100000830B50B46014600202022012433
:1001000009E00D46D5409D4205D31D469540491B4B
:100110002546954040191546521E002DF1DC30BD94
:10012000F0B51FB40646002082B005464024019178
:1001300000901BE0019922460F46304600F042F83D
:10014000049A059B801A994110D3104619462246FD
:1001500000F028F8361A8F4101972246012000212D
:10016000009F00F01FF838184D4100902046641E93
:100170000028DFDC019B00982946324607B0F0BD1D
:10018000D2B201E00270401C491EFBD2704700222F
:10019000F6E710B513460A4604461946FFF7F0FF86
:1001A000204610BD10B5202A04DB0146203A9140BC
:1001B000002010BD914020239C1A0346E3401943C0
:1001C000904010BD10B5202A04DB0846203AD040EC
:1001D000002110BD0B46D340D0402024A21A9140EC
:1001E0000843194610BD0000064C0125064E05E0E7
:1001F000E36807CC2B430C3C98471034B442F7D348
:10020000FFF762FFD0330008F033000808B56946F5
:100210000870052000220221000700F085FB034B37
:1002200001226946024801F00BFA08BDFFFF0000F9
:10023000F401002070B5054600F00EF819246402A0
:100240002E0A304600F02CF8E8B200F029F8641EBF
:100250002404240CF5D170BD10B52A20FFF7D6FF79
:10026000002000F01DF81A2000F01AF8002000F01D
:1002700017F8692000F014F82B20FFF7C7FF0020C3
:1002800000F00EF8012000F00BF8002000F008F854
:10029000A02000F005F82C20FFF7B8FF10BD0000EB
:1002A00008B569460870052001220221000700F008
:1002B0003BFB034B01226946024801F0C1F908BD2E
:1002C000FFFF0000F401002072B6FEE7F8B500273A
:1002D0000646044640360097307D0D4601280FD073
:1002E00001203075206801F00BFF00280AD0A06DB6
:1002F00020210843A0650127002030753846F8BD4D
:100300000220F8BD686802287ED001222169D20748
:10031000914202D0121D914206D120682968826A5A
:100320004903490B0A436EE0C206D20E0F20216E2C
:10033000904081432868430302D0C3074BD102E0B9
:100340004000C00E48E0830701D5012044E0430788
:1003500001D5022040E0030701D503203CE0C3069D
:1003600001D5042038E0830601D5052034E043069A
:1003700001D5062030E0030601D507202CE0C30597
:1003800001D5082028E0830501D5092024E0430594
:1003900001D50A2020E0030501D50B201CE0C30491
:1003A00001D50C2018E0830401D50D2014E043048E
:1003B00001D50E2010E0030401D50F200CE0C3038B
:1003C00001D5102008E0830301D5112004E040038B
:1003D00001D5122000E000209040014321666968A9
:1003E000E2698808401C904210D820682B68826A15
:1003F0009C46C906C90E0F238B409A4363469B0057
:100400001B0F8B401A4300E03BE082622168AB681F
:1004100028684A69000282431840400140090243AB
:100420004A612868002800DB66E72B4A1168072329
:100430009B051940294B984214D10B0212D4C002DB
:100440000143104601F060FE264825490068FFF789
:1004500051FE0C21401C484300E0401E0090002843
:10046000FBD149E7204B984203D1CB0101D4800254
:1004700005E01E4B9842D7D14802D5D4580201431B
:1004800025E001212069C907884202D0091D884260
:1004900006D120682968826A4903490B8A4382622F
:1004A00028680028C0DA0C4A116807239B05194008
:1004B0000A4B984201D1C00208E00B4B984201D18F
:1004C000800203E0094B9842AED1400281431046BE
:1004D00001F01AFE10E7000008270140001000B0EC
:1004E000400D03000C000020004000B8002000B4C4
:1004F000FEB50027044601973E4602970097002864
:1005000005D02546A06D2035002802D007E0012047
:10051000FEBD204600F0FCF8E66554200655206834
:100520008168C900C90F12D18168724A1140012245
:1005300012071143816071486F490068FFF7DAFDC7
:100540004000801C00E0401E00900028FBD1206885
:100550008168C900C90F08D1A16D10221143A1659E
:10056000E16D01221143E165174601F0C9FDA16D5E
:10057000C90601D4002804D0A06D10210843A0654D
:10058000B4E0A06DFF210131884302210843A0653A
:10059000206801F0B1FD00286DD1217EA06889039B
:1005A0000843617ECA03A17E4B031A431043226BAA
:1005B000002A01D0012212031043E268104322698D
:1005C000002A02DA5200520801E0012252051043CB
:1005D0002A7B52001043019A10432A78012A09D13C
:1005E000002922D0A16D20221143A165E16D0122D5
:1005F0001143E165616A002906D0FF23C133194028
:10060000A26A0143104608432168CA683C4B1A405D
:100610000243CA606168029A890F8907E06C0A4345
:1006200010432A7F012A04D00CE001210904084369
:10063000E0E7636C226C491C1A43A36C0B43114620
:100640001943084321680A692E4B1A4002430A6184
:1006500003216068890788420DD0590788420AD073
:100660004900884207D0284A91680F239B04994388
:100670001840014391600021626B206801F04BFD3E
:100680002249A26B206801F046FD0F202169C0437A
:1006900000291CD00122520591420AD121688A6AA0
:1006A000227F9200121FD206D20E9040226E10437B
:1006B000886220684069616B4007400F88420BD117
:1006C000E665A06D80088000401CA0650FE02168F1
:1006D0008A6A02438A62ECE7A06D022188431021F6
:1006E0000843A065E06D01210843E0650127384615
:1006F000FEBD0000E8FFFF7F400D03000C0000205E
:100700000102DEFF02FCFF1F0027014004FFFF077C
:1007100030B591B0044614216846FFF738FD282112
:1007200005A8FFF734FD1D492068884234D1012017
:100730008003002405900C9405A800F0EBFA002833
:1007400001D0FFF7C1FD16480268012109050A43DF
:100750000260006808400F9011484038426B012148
:100760000A434263426B0A400F92436B02221343D7
:100770004363406B009110400F90032505200195C5
:1007800002946946000700F021F800956946054883
:100790000195029400F01AF811B030BD0024014018
:1007A000401002400004005070B5044600F0C2F84A
:1007B0000546601C02D004480078241800F0BAF8FE
:1007C000401BA042FAD370BD00000020F0B500230A
:1007D00003249AE02A4601259D402A407ED00E79C6
:1007E000B607B60F012E01D0022E16D18668274615
:1007F000B4465E00B646B7406646BE43B446CF68D0
:100800007646B7406646374387604668AE430D7903
:10081000ED06ED0F9D40354345600D79ED43AD0785
:1008200008D0C5685F002646BE40B5438E68BE400E
:100830002E43C6600D79AD07AD0F022D0ED1DD0838
:10084000AD002D18AC462D6A5E07F60E0F27B74097
:10085000BD430F69B7402F4365462F6205685F00AF
:100860002646BE40B5430E79B607B60FBE402E43AE
:1008700006604D68AD03AD0F46D09E08264DB6000C
:100880007519AC462D6E9E07F60E0F27B740BD4377
:1008900005273F07B84201D100270FE01F4FB8429C
:1008A00001D101270AE01E4FB84201D1022705E01D
:1008B0001C4FB84201D1032700E00527B7402F4362
:1008C000154D664637662D684E689543F60200D58D
:1008D0001543114F3D607D68954300E014E04E687C
:1008E000B60200D515437D600B4D80356E684F68AC
:1008F0009643BF0300D516436E602E684F6896433B
:10090000FF0300D516432E605B1C0A681546DA40CB
:1009100000D05FE7F0BD0000001802400004005066
:1009200000080050000C0050002A01D0816170477F
:100930008162704701488068704700000000002015
:1009400070B5024640325378202B1CD11378012B0E
:1009500019D00123137024245470046825689D4322
:100960002560046825681E03B54325600468256872
:100970000D43256000680168194301602020507014
:100980000020107070BD022070BD70B5024640326C
:100990005378202B1BD11378012B18D0012414700D
:1009A0002423537003681D68A5431D6005682B68E8
:1009B0000F263602B3430902194329600068016813
:1009C00021430160202050700020107070BD022073
:1009D00070BD000070B5040006D02546403568782B
:1009E0000026002802D005E0012070BD2E702046B0
:1009F00000F04EF82420687020680168490849001A
:100A000001600F2160680906884321680861216838
:100A10008A680120C00382438A60E1680129A168D5
:100A20002FD0212292021143226891600121E268B5
:100A3000C902022A2268536825D08B43536021687B
:100A40004A68124B1A434A602168CA688243CA60E6
:100A5000616920690843A169090208432168C860E7
:100A6000216AE06908432168086020680168012262
:100A7000114301606664202068702663AE70002018
:100A800070BD0143D0E70B43D8E7000000800002AF
:100A900030B591B0044614210AA8FFF778FB28214D
:100AA0006846FFF774FB16492068884226D120204B
:100AB000002500900395684600F02CF9002801D02D
:100AC000FFF702FC0F4C616B022001436163616B15
:100AD0000C9501400F91C0200A9012200B90062027
:100AE0000E900D950AA90848FFF770FEE16B0120F2
:100AF00040050143E163E16B01400F9111B030BD4E
:100B00000054004000100240000400500248816878
:100B100002788918816070470000002010B50848ED
:100B200000240168821511430160032000F00AF8D7
:100B3000002801D0012401E000F052F8204610BD49
:100B40000020024030B505461F4887B00268C11436
:100B50000A43026000680840009005A901A800F05F
:100B60005DFA0498002815D000F074FA4000174987
:100B7000FFF7C0FA411E1748154A0260164AC260C4
:100B80004160002101618160816100F09FFE0400ED
:100B900003D015E000F05EFAE9E70E4800F0E8FE49
:100BA00004000DD10D2000F03FF8042D07D20022E3
:100BB00029460D2000F044F80848056000E00124B3
:100BC000204607B030BD00004010024040420F00F8
:100BD000002C01403C030020E7030000040000203B
:100BE0000EB50020009001900E48016801221143CB
:100BF00001600068104002900A484038C26B01044E
:100C00000A43C263C06B08400290684600F01CF8BB
:100C100000F078F8082000F0C3FD102000F0C0FDBF
:100C20000EBD000040100240002805DBC106C90EC1
:100C300001208840014908607047000000E100E0A1
:100C400010B502F0F7FA10BD10B5194A51687E23AD
:100C5000994303681943516016494A6801231B04EC
:100C60009A434A600A689A430A60124A803A546872
:100C70009C43546014689C4314604468E40302D5A8
:100C80000C681C430C604468A40302D54C681C43E8
:100C90004C600179C90702D01168194311600079CD
:100CA000800702D5506818435060002010BD000036
:100CB000007000408018024010B50F4C21680322DC
:100CC0005202914301432160C11FFF39FA390ED10D
:100CD0000A480621006848430949FFF70BFA401CFF
:100CE00002E0002805D0401E61694905F9D40020C2
:100CF00010BD032010BD0000007000400C0000205B
:100D000040420F0002484168012211434160704790
:100D100000700040F8B5044600680026664D800368
:100D200058D5654800274038C06BC00009D46248D8
:100D30004038C26B01040A43C263C06B08400127FC
:100D400000905E480168821511430160FFF7F2FDD3
:100D5000009005E0FFF7EEFD0099401A022825D823
:100D600056480068C005F5D5E86903210902084026
:100D70000FD0616A81420CD0E86903210902EA6957
:100D80008843012109040A43EA61EA698A43EA6166
:100D9000E861C0070FD0FFF7CDFD009008E0FFF736
:100DA000C9FD0099411A4648814201D9032609E04C
:100DB000E8698007F3D5E869032109028843616A7D
:100DC0000843E861002F05D03B484038C26B01045E
:100DD0008A43C2632078C00705D0686961688008CB
:100DE0008000084368612078C00606D56869032141
:100DF00089028843A168084368612088800506D578
:100E0000686903218904884361690843686120880F
:100E1000400506D56869032109058843A16908438F
:100E200068612078800606D5686903210903884334
:100E3000E168084368612088400411D56869E16968
:100E400080008008084368610121E06989078842C1
:100E500006D119484038C168012212041143C1600B
:100E60002068800210D5686901218905226A8843BB
:100E700010436861206A884206D10F484038C16833
:100E8000012212061143C1602088000512D568694D
:100E9000032189038843216908436861012120698E
:100EA0008903884206D104484038C16801221204EF
:100EB0001143C1603046F8BD401002400070004050
:100EC00088130000F8B50F46060043D04D4D286842
:100ED0004007400FB84213D22868C008C00038430A
:100EE0002860FFF727FD044605E0FFF723FD011BFF
:100EF0004548814261D828684007400FB842F4D184
:100F00003068424C81070DD5400704D5A068072101
:100F100009030843A060A0680F2109028843B16853
:100F20000843A0603078C00732D0706801280AD02A
:100F300002280BD000280FD03449403103280ED0AE
:100F4000C969890704E02168890301E021688901F2
:100F5000002906DB0120F8BD21684905F8E7096A88
:100F6000EFE7A168C908C9000143A160FFF7E2FCEF
:100F7000009006E0FFF7DEFC0099411A224881420A
:100F80001BD8A068382108407168C9008842F1D197
:100F900028684007400FB84217D91A480168C908A5
:100FA000C90039430160FFF7C5FC054607E0FFF7BC
:100FB000C1FC411B1448814201D90320F8BD1148EE
:100FC00000684007400FB842F1D13078400706D59D
:100FD000A068072109038843F1680843A06000F076
:100FE0004DF8A1683C2289091140094A515CC906A3
:100FF000C90EC8400749086007480068FFF7A2FD0E
:10100000F8BD0000002002408813000000100240DC
:10101000703300080C0000200400002010B50722E7
:1010200002600A4A93685B075B0F436093680F2472
:10103000240223408360926807231B031A40C26086
:10104000034800684007400F086010BD00100240D0
:10105000002002400648074900688968064A49049A
:10106000490F8900515CC906C90EC840704700008D
:101070000C00002000100240B033000810B5204CD6
:10108000A068204A8006400F16D0A0688006410F55
:10109000501001290FD0A1688906490F022912D0EA
:1010A000A0688006400F042823D0A0688006400F67
:1010B000032821D0002010BD206801218004400FAA
:1010C0008140104612E0E1688B07E1689B0F4906FA
:1010D000490F491C032B00D01046FFF70BF8E168BD
:1010E0004904490E4843E168490F491CFFF702F8DB
:1010F00010BD0120C00310BD7D20000210BD000006
:10110000001002400024F400F8B504007ED02078DE
:101110003827C007ED4D002846D0A868E968384058
:101120008907890F102802D008280BD001E0032975
:1011300008D001206268000482420AD12968014374
:10114000296015E0286880032ED560680028DDD06E
:101150002AE0052301211B0489049A422A6802D14E
:101160000A432A60EAE782432A60286888432860A5
:10117000606800280CD0FFF7DDFB064604E0FFF7AF
:10118000D9FB801B642873D828688003F7D50BE04F
:10119000FFF7D0FB064604E0FFF7CCFB801B64287A
:1011A000F1D828688003F7D42078800769D5A8682B
:1011B000E96838408A070721920FC902102802D037
:1011C000002813D001E0022A10D0E068002846D0A1
:1011D000286888432169084328602868FF21013175
:1011E00008432860FFF7A6FB06462CE02A68520554
:1011F00002D5E268002A89D06A687F231B029A43DD
:1012000063691B021A436A60002800E08DE00ED17A
:1012100028688843216908432860286801218004E0
:10122000400F8140AA48FEF765FFAA490860AA4816
:101230000068FFF787FC002877D122E0FFF77AFBF0
:10124000801B02289FD828684005F7D568687F2151
:1012500009028843616909020843686011E029684E
:10126000FF20013081432960FFF764FB064605E05B
:1012700098E0FFF75FFB801B022884D828684005B0
:10128000F7D42078954E00072ED5A8688006400F29
:1012900003280AD0A0690028306A16D0012108432B
:1012A0003062FFF747FB07460BE0306A80071BD52B
:1012B000A06900289FD017E0FFF73CFBC01B022865
:1012C00070D8306A8007F7D50EE0400840003062E1
:1012D000FFF730FB074604E0FFF72CFBC01B02289A
:1012E00060D8306A8007F7D4207840076CD5A868AA
:1012F00000278006400F042818D0E86BC00008D4EF
:10130000E96B012000070143E963E96B0140012714
:10131000009173480168C90519D401688215114309
:101320000160FFF707FB00900DE083E0F0698007A4
:101330004AD5A06800287DD046E0FFF7FBFA009967
:10134000401A02282ED866480068C005F5D5A16865
:10135000012910D004200529F16911D0490849005C
:10136000F161F1698143F161A068002816D0FFF7AF
:10137000E1FA00900EE0F06901210843F061F3E723
:101380000143F161F7E7FFF7D5FA0099411A554893
:10139000814267D8F0698007F5D50EE0FFF7CAFAF9
:1013A000009007E05EE0FFF7C5FA0099411A4D484A
:1013B000814257D8F0698007F5D4002F04D0E86B3C
:1013C000012109078843E863E06900287BD0A96808
:1013D0008906490F02294FD00126360602282868BF
:1013E00005D0B0432860FFF7A5FA04463CE0B043BF
:1013F0002860FFF79FFA074604E0FFF79BFAC01B3F
:1014000002282FD828688001F7D4616A206AA26A6E
:101410000843E16A120211430843216B0843616BE0
:101420000843E968304A11400843E86028683043BF
:10143000286000E045E0E868012109070843E8600A
:10144000FFF778FA044604E0FFF774FA001B02285D
:1014500008D828688001F7D535E0FFF76BFA001B44
:10146000022801D90320F8BD28688001F5D4E86876
:101470001E490840E86026E00128F4D0E868226AA6
:101480008107890F91421CD17021626A014091420B
:1014900017D17F21A26A090201401202914210D1A4
:1014A0001F214904E26A014091420AD107214906FD
:1014B000226B0140914204D1400F616B400788428A
:1014C00001D00120F8BD0020F8BD0000001002404E
:1014D0000024F4000C000020040000204010024012
:1014E00000700040881300008C80C111FCFFFEEEEC
:1014F000F8B504000CD0606A002500280AD02561E8
:10150000656126464036A562707F002808D00BE052
:101510000120F8BD6168C81FFD38F2D0E561F0E731
:101520003577204600F05CF8022272772068016867
:101530004023994301600723E1681B02994201D9C6
:10154000002001E0012000030F273F02B94202D032
:10155000994200D0A562FF23616805331940212715
:10156000A368BF023B40194323691340227D1943FE
:10157000D207D20F11430123A2695B021A40114323
:10158000E26938231A401143226A80231A4011432A
:10159000A26A9B011A40114322681160A1690422CA
:1015A000090C1140626A10231A401143626B082330
:1015B0001A4011430F23E2681B021A401143012213
:1015C000120310400143206841602068C169521035
:1015D0009143C1612566012070770020F8BD0000AD
:1015E00010B586B0044614216846FEF7D0FD1249B6
:1015F000206888421DD11148026881140A430260A4
:101600000068084005900D484038416B01221143A5
:101610004163406B694610400590B0200090022065
:101620000190002002900390049005200007FFF72E
:10163000CDF806B010BD000000300140401002405F
:10164000FFB5054604464035287F002781B0164681
:10165000012809D001202877FFF76CF90090687FF6
:10166000012804D0022797E0022005B0F0BD0298BF
:10167000002874D0002E72D00320687700202066E6
:101680000299A163A687E6872064A880E880206588
:10169000E0640122A068D2034021904208D1206872
:1016A00002688A430260206802680B021A430260E3
:1016B00020680268520602D402680A4302600721C9
:1016C000E06809028842606828D9002801D0012E0C
:1016D0001ED1A06B21680088C86006E02068816880
:1016E000890709D5A16B0988C160A06B801CA06324
:1016F000E08F401EE0870BE0FFF71CF90099411ACC
:101700000498814202D3401C02D005E0002803D097
:10171000E08F0028E2D128E003273BE0002801D039
:10172000012E1FD1A06B21680078087306E02068A5
:101730008168890709D5A16B09780173A06B401CEA
:10174000A063E08F401EE0870CE0FFF7F3F80099FC
:10175000411A0498814203D3401C03D0DCE717E010
:101760000028D9D0E08F0028E1D12046009A0499C2
:1017700000F0F4FE002801D020202066A068002898
:1017800003D12068C16880680090206E002801D0D5
:10179000012701E00120687700202877384664E7B8
:1017A00002490A6802430A607047000000000140D5
:1017B000704770477047000030B5034620331A7FEA
:1017C000012A49D001221A770325CA682D02AA43AB
:1017D0008D6800682A430125AD02AA434D680024A4
:1017E0002A430125ED02AA430D682A4301252D0352
:1017F000AA430D692A4301256D03AA434D692A4373
:101800000125AD03AA430D6B2A430F252D04AA43DE
:101810000D8B2D042A4301252D07AA43CD692A43A8
:101820000E4DA84214D10F252D05AA430D8D2D056F
:101830002A4301252D06AA430D6A2A4301256D0678
:10184000AA434D6AC96A2A4301256D07AA430A4380
:1018500042641C77002030BD022030BD002C0140C6
:10186000F0B5034620331A7F012A28D001221A77C7
:1018700002225A7704686268A568124FBC4205D1FB
:1018800016460F22120596434A6832437026B24329
:101890000E68164366600068B84206D001229207BF
:1018A000904202D0084A904204D180228968954330
:1018B000294381600120587700201877F0BD02206D
:1018C000F0BD0000002C01400004004070B5040091
:1018D00005D025462035687F002802D006E001208B
:1018E00070BD00202877204600F016F802206877A7
:1018F000211D206801F05EF8012240342272AA778F
:10190000EA7722706270A270E27022716271A27135
:10191000E2716A77002070BD08B501220168920764
:101920001048914206D1C16B01221143C163C06BC3
:10193000104008E00C4A914207D1C26B02210A43D1
:10194000C263C06B0CE0009008BD08488142FBD127
:10195000044840300268012149040A4302600068DB
:101960000840F0E70010024000040040004401403D
:10197000014620314A7F012A01D00120704702220E
:101980004A770168CB6801221343CB6000680B499A
:10199000884205D09107884202D00949884207D180
:1019A0008168084B1940062905D0DB1F994202D0F7
:1019B000016811430160002070470000002C0140C5
:1019C0000004004007000100F8B505460446203534
:1019D000287F0026012817D001272F77022068775B
:1019E000226890682F4B1840FF231B029843906099
:1019F0000868502838D00EDC20284FD006DC00289C
:101A00004CD010281ED149E00220F8BD302845D026
:101A1000402817D13AE060282ED0702818D0012233
:101A20001203801A0FD090420CD1CB684A688968A3
:101A3000206801F009F820688168012292031143AF
:101A4000816000E001266F77002028773046F8BDDE
:101A5000CB684A688968206800F0F6FF21688868CA
:101A6000772210438860EEE7CA684968206801F071
:101A70004FF95021206806E0CA684968206801F0E3
:101A800058F96021206800F0EBFFDCE7CA6849687C
:101A9000206801F03DF940212068F4E72268014602
:101AA0001046F0E788FFCEFF70470000F8B5044607
:101AB0000068C66805690027A907002913DAB1077D
:101AC00011D5F91E01610120207720688069800707
:101AD000204602D0FFF7E8FF04E000F0D9F82046E6
:101AE00000F092F92777680716D5700714D50420FF
:101AF0002168C04308610220207720688069800542
:101B0000800F204602D0FFF7CFFF04E000F0C0F8BE
:101B1000204600F079F92777280715D5300713D527
:101B200008202168C0430861042020772068C0692C
:101B30008007204602D0FFF7B7FF04E000F0A8F8C6
:101B4000204600F061F92777E80616D5F00614D58F
:101B500010202168C0430861082020772068C069F0
:101B60008005800F204602D0FFF79EFF04E000F0C2
:101B70008FF8204600F048F92777E80708D0F007EB
:101B800006D001202168C0430861204600F03EF9DC
:101B9000280601D4A80407D5300605D521681348C6
:101BA00008612046FFF705FEE80507D5300605D594
:101BB00021680F4808612046FFF7FAFD680608D53E
:101BC000700606D540202168C0430861204600F019
:101BD00027F9A80608D5B00606D520202168C043FD
:101BE00008612046FFF7E6FDF8BD00007FDFFFFF3C
:101BF000FFFEFFFF30B587B0044614216846FEF7AC
:101C0000C6FA01222168920700241D48022591424C
:101C100021D1426B04210A434263426B0A40059280
:101C2000416B012211434163406B029410400590C7
:101C30004020009001956946049503941148FEF7F1
:101C4000C5FDA803009005200294019569460495FE
:101C50000394000710E00C4A91420FD1416B2943D5
:101C60004163406B029428400590901500900195C7
:101C70006946049503940548FEF7A8FD07B030BDFA
:101C800000100240000800500044014000040050D1
:101C90007047F8B504460020264620360090307F75
:101CA0000D4601280CD00120082730770C2A48D097
:101CB00008DC002A10D0042A1ED0082A06D130E001
:101CC0000220F8BD102A52D0142A60D001200090C2
:101CD000002030770098F8BD206800F0CBFE206827
:101CE000816939438161206881690422914381615E
:101CF000206881692A6911E0206800F0F9FE2068F7
:101D000081690122D20211438161206881695210E8
:101D100091438161206881692A69120211438161BE
:101D2000D6E7206800F022FF2068C1693943C1610D
:101D30002068C16904229143C1612068C1692A6990
:101D400012E0206800F050FF2068C1690122D20231
:101D50001143C1612068C269012189028A43C261BD
:101D60002068C1692A6912021143C161B0E7206885
:101D700000F06EFF2068416D394341652068426D77
:101D800004218A4342652068416D2A6912E0206877
:101D900000F08CFF2068416D0122D20211434165A1
:101DA0002068426D012189028A4342652068416DA5
:101DB0002A691202114341658AE770B5040005D013
:101DC00025462035687F002802D006E0012070BD3E
:101DD00000202877204600F016F802206877211DA1
:101DE000206800F0E7FD012240342272AA77EA77EA
:101DF00022706270A270E27022716271A271E2714F
:101E00006A77002070BD70477047000010B5006809
:101E10000249884201D1FEF779FE10BD002C014035
:101E2000704710B5014680310A79012A15D0012288
:101E30000A7124228A6002681368146864086400C6
:101E40001460012252079343002242660068036037
:101E5000202088600A71104610BD022010BD70B5A8
:101E6000044605468034207901281AD001202071CB
:101E70002420A060286806680268520852000260A8
:101E80002868826807235B069A430A4382602846D3
:101E900000F062FF286806602020A060002020710A
:101EA00070BD022070BD70B50446054680342079AF
:101EB000012819D0012020712420A060286806681C
:101EC000026852085200026028688268D200D20874
:101ED0000A438260284600F03FFF28680660202001
:101EE000A0600020207170BD022070BD70B504009C
:101EF00005D025468035A868002802D006E00120DC
:101F000070BD00202871204600F026F82420A8602B
:101F100020680168490849000160A06A002802D0D1
:101F2000204600F03BFF204601F02CF80128E7D0C6
:101F3000206841680922D20291434160206881688B
:101F40002A229143816020680168012211430160C7
:101F5000204600F089FF70BDF0B591B00446142111
:101F60000AA8FEF714F928216846FEF710F92B4954
:101F700020682B4C022700250126884223D11020FF
:101F8000009002956846FEF7C5FE002801D0FEF7D6
:101F90009BF9E16B012000050143E163E16B014026
:101FA0000F91606B30436063606B0C95C007C00F8E
:101FB0000F900C200A9006200E9005200B970D958F
:101FC0000AA9000726E01749884225D168460096ED
:101FD0000195FEF79FFE002801D0FEF775F9104825
:101FE00040300268012189030A430260006808400A
:101FF0000F90606B30436063606B0C95C007C00F3F
:102000000F90032040020AA90E960D9581C105206C
:1020100000070839FEF7DAFB11B0F0BD0080004080
:102020000010024000380140FFB5064604468036E5
:10203000B06883B00D46202802D0022007B0F0BD62
:10204000002D0CD00598002809D00120A1680003BC
:10205000814206D12069002803D1E80701D0012080
:10206000ECE7002030612120B060FEF763FC0190B6
:10207000274640370598B8820598F8820120A16864
:102080000003814202D12069002802D00295002578
:1020900015E00020029012E000228021204601F08D
:1020A00077F8002818D10298002819D02168007804
:1020B00088620298401C0290F88A401EF882F88AD2
:1020C000019B002806980090E6D10022402120467E
:1020D00001F05EF800280AD02020B0600320ADE7B0
:1020E00028882168C005C00D8862AD1CE4E7202067
:1020F000B0600020A2E7FEE78068C007C00F70470D
:1021000080684007C00F7047026807239B059A4309
:102110000A430260704710B5436904242140072434
:102120008C40A3438A401343436110BD3EB5002455
:102130001848009401941649029401608460C460B8
:102140000905046141600421416104764476847686
:102150000121C161014620310C70446284620C731C
:102160000463446384630C77C464FEF7C1F90028F8
:1021700001D0FEF7A9F8084800900194694602943E
:102180000448FEF7A3F8002801D0FEF79DF83EBDF5
:10219000002401401400002000010020F0B587B0A9
:1021A00014216846FDF7F3FF1B48426B04210A43E4
:1021B0004263426B0A400592416B0125294341630A
:1021C000416B29400591426B02210A434263406BF7
:1021D0000526084036070590002242213046FEF7CA
:1021E000A3FB0E4F002238213846FEF79DFB42200C
:1021F0000024009002946946019503943046FEF74E
:10220000E5FA382000900294694601950394384617
:10221000FEF7DCFA07B0F0BD0010024000040050E9
:1022200010B51348114901601249416000218160D5
:102230000161416181610122C161C2600162FEF7F9
:10224000C9FB002801D0FEF73FF800210848FEF73F
:1022500077FB002801D0FEF737F800210448FEF78D
:1022600094FB002801D0FEF72FF810BD0054004069
:1022700078000020BC7D701010B519481749016026
:10228000184941600121090781600021C160016195
:102290008161016241620C22816242614166FFF705
:1022A00025FE002801D0FEF70FF800210C48FFF7AB
:1022B000FAFD002801D0FEF707F800210848FFF7D3
:1022C000CEFD002801D0FDF7FFFF0548FFF7A9FD6F
:1022D000002801D0FDF7F8FF10BD0000008000408D
:1022E000CC0000202433030010B511480F490160D1
:1022F000FF21053141600021072281601202016146
:10230000C26001224161920482610162416208223D
:1023100081620723C261C36242630163FFF7E8F889
:10232000002801D0FDF7D0FF10BD000000300140B3
:10233000F401002010B594B01C210DA8FDF727FF73
:1023400034216846FDF723FF1F492048002412C0AE
:1023500004608460C4601E49046141600838FFF76E
:10236000B5FA002801D0FDF7AFFF1848FFF725FDAB
:10237000002801D0FDF7A8FF602012940E940D9064
:102380000F941094119400220DA913940F48FFF795
:1023900080FC002801D0FDF797FF01200094400346
:1023A00001940294059003940494069469460C9455
:1023B0000648FFF701FA002801D0FDF785FF034822
:1023C000FFF718FC14B010BD00440140F0020020DB
:1023D000FFFF000010B58EB0002407940894099404
:1023E0000A940B940C941C2168460D94FDF7CFFEC3
:1023F00001212348890712C004608460611E0461C2
:1024000041600838FFF762FA002801D0FDF75CFF51
:1024100001200003079007A91948FFF7D5FA002803
:1024200001D0FDF751FF1648FFF7C7FC002801D087
:10243000FDF74AFF0B940BA911480D94FFF710FA12
:10244000002801D0FDF740FF602000900194029425
:102450000022694604940A48FFF71BFC002801D0BB
:10246000FDF732FF082269460548FFF712FC0028F5
:1024700001D0FDF729FF0248FFF7BCFB0EB010BDED
:102480005802002010B588B000240094019415492A
:1024900015480294039404940594069412C00460B1
:1024A00084601249046141600838FFF70FFA002880
:1024B00001D0FDF709FF01200003009069460A489A
:1024C000FFF782FA002801D0FDF7FEFE049404A96C
:1024D00005480694FFF7C4F9002801D0FDF7F4FE83
:1024E00008B010BD00040040A4020020FFFF00005F
:1024F00010B5184816490160E121490241600021E8
:102500008160C16001618161C16101620C2241622F
:1025100042618162FFF7EAFC002801D0FDF7D4FE9A
:1025200000210C48FFF7BFFC002801D0FDF7CCFECE
:1025300000210848FFF793FC002801D0FDF7C4FEF6
:102540000448FFF76EFC002801D0FDF7BDFE10BD6A
:102550000038014060010020FEE77047F8B50F46E3
:102560000B4615460092032104460022C90200F0E2
:102570001BF82026002812D13B460022802120464D
:10258000009500F07DF8002809D103213B46002288
:1025900049022046009500F007F8002803D0206E7D
:1025A000304320660320F8BDFFB585B00E460446D3
:1025B000002069460E9D17460871FEF7BBF9411BC6
:1025C0000898451AFEF7B6F90390206823210C30CD
:1025D00002902A4800684843000D684346E0032003
:1025E0004002864206D1002F04D102980178684645
:1025F000017100790898401C39D0FEF79BF90399C6
:10260000401AA84205D2002D03D0009800282BD0F4
:102610002BE020684168E022914341606068C11F5F
:10262000FD390CD10121A068C903884202D04911AB
:10263000884204D120680168402291430160012052
:10264000A16A4003814207D121680A6882430A6077
:1026500021680A6802430A60012040346077002044
:102660002077032009B0F0BD0025401E00902068AF
:1026700080683040B842B2D10020F3E70C0000205F
:10268000FFB581B01E4604460A9DFEF753F9401B74
:10269000351AFEF74FF90746264800684001000D3D
:1026A000684339E0701C38D0FEF744F9C01BA842DB
:1026B00005D2002D03D0009800282BD02BE02068F5
:1026C0004168E022914341606068C11FFD390CD12F
:1026D0000121A068C903884202D04911884204D16F
:1026E000206801684022914301600120A16A4003F3
:1026F000814207D121680A6882430A6021680A681A
:1027000002430A60012040346077002020770320D4
:1027100005B0F0BD0025401E009020688168029839
:10272000884305D0002103988142BBD10020EFE708
:102730000121F8E70C00002010B505242407012230
:1027400040212046FEF7F0F80520FEF72DF8002284
:1027500040212046FEF7E8F80520FEF725F8012283
:1027600040212046FEF7E0F81420FEF71DF8112066
:10277000FDF74CFD7820FEF717F8B120FDF746FD78
:102780000520FDF78DFD3C20FDF78AFD3C20FDF77F
:1027900087FDB220FDF73AFD0520FDF781FD3C20C5
:1027A000FDF77EFD3C20FDF77BFDB320FDF72EFD00
:1027B0000520FDF775FD3C20FDF772FD3C20FDF77F
:1027C0006FFD0520FDF76CFD3C20FDF769FD3C2009
:1027D000FDF766FDB420FDF719FD0320FDF760FD50
:1027E000C020FDF713FD2820FDF75AFD0820FDF756
:1027F00057FD0420FDF754FDC120FDF707FDC02063
:10280000FDF74EFDC220FDF701FD0D20FDF748FD4F
:102810000020FDF745FDC320FDF7F8FC8D20FDF7F6
:102820003FFD2A20FDF73CFDC420FDF7EFFC8D2085
:10283000FDF736FDEE20FDF733FDC520FDF7E6FC84
:102840001A20FDF72DFD3620FDF7E0FCC020FDF736
:1028500027FDE020FDF7DAFC0420FDF721FD222012
:10286000FDF71EFD0720FDF71BFD0A20FDF718FDF3
:102870002E20FDF715FD3020FDF712FD2520FDF778
:102880000FFD2A20FDF70CFD2820FDF709FD26206D
:10289000FDF706FD2E20FDF703FD3A20FDF700FDB4
:1028A0000020FDF7FDFC0120FDF7FAFC0320FDF7F9
:1028B000F7FC1320FDF7F4FCE120FDF7A7FC042052
:1028C000FDF7EEFC1620FDF7EBFC0620FDF7E8FC1B
:1028D0000D20FDF7E5FC2D20FDF7E2FC2620FDF79D
:1028E000DFFC2320FDF7DCFC2720FDF7D9FC2720A7
:1028F000FDF7D6FC2520FDF7D3FC2D20FDF7D0FCFD
:102900003B20FDF7CDFC0020FDF7CAFC0120FDF7C0
:10291000C7FC0420FDF7C4FC1320FDF7C1FC3A20DE
:10292000FDF774FC0520FDF7BBFC2920FDF76EFCCC
:1029300010BD7047704730B593B038216846FDF739
:1029400026FC002501200E950F951095400211954B
:10295000FEF7B2F90224E0010390009440200590B4
:1029600008200A9080030B90079400020C900894B2
:10297000000104950D9009956846FEF7C5FB0028F7
:1029800001D072B6FEE707200EA931C102210EA8C0
:102990001195FEF797FA002801D072B6FEE713B042
:1029A00030BD704710B50248FFF780F810BD000039
:1029B0003C030020F0B502681E4B0124A4071E4D05
:1029C000984203D0A04201D0A84203D17026B2435E
:1029D0004E683243194E1A4F98420AD0A04208D08E
:1029E000A84206D0174CA04203D0B04201D0B84252
:1029F00004D103242402A243CC6822438024A243AE
:102A00004C69224302608A68C2620A688262984204
:102A100003D0B04201D0B84201D10969016301215C
:102A200041610169C90703D0016949084900016191
:102A3000F0BD0000002C01400004004000440140B3
:102A4000004801400020004030B58468FF252D0279
:102A50001B021343AC430B432343836030BD000090
:102A60008268034B1A400A4307210A438260704779
:102A70008FFFCFFFF0B5056A026A5208520002626A
:102A800043688269164C184E224092080C689200E6
:102A90001443022295438A682A43124DA84204D067
:102AA000B04202D0114FB84206D10827BA43CF68CE
:102AB0001743042297433A46A84204D0B04202D0BA
:102AC0000A4DA84206D103252D02AB434D691D4393
:102AD0008B692B4343608461496841630262F0BDA6
:102AE0008FFFFEFF002C01400044014000480140E0
:102AF00070B5046A026A10239A43026243688269CD
:102B0000164D2A4003252D02AA430D682D021543B8
:102B1000202294438A6812012243114CA04207D11B
:102B20008024A243CC68402624012243B24305E01E
:102B30000C4CA04202D00C4CA04208D10324A402A9
:102B4000A3434C69A4001C438B699B00234343604F
:102B5000856149688163026270BD0000FF8FFFFEDE
:102B6000002C0140004401400048014070B5046A57
:102B7000026AFF2301339A4302624368C269164D19
:102B80002A4092080D689200154301225202944394
:102B90008A6812022243114CA04208D11446CA6826
:102BA000C614B443120222430415A24305E00C4CA0
:102BB000A04202D00B4CA04208D103242403A3431B
:102BC0004C6924011C438B691B0123434360C5618D
:102BD0004968C163026270BD8FFFFEFF002C014097
:102BE000004401400048014030B5046A026A0123F4
:102BF0001B039A4302624368C269114D2A400325B0
:102C00002D02AA430D682D0215430122520394435D
:102C10008A68120322430B4CA04205D00A4CA04202
:102C200002D00A4CA04205D10124A403A3434C695D
:102C3000A40123434360C56149680164026230BD59
:102C4000FF8FFFFE002C014000440140004801407E
:102C500070B5036A026A01263604B2430262426812
:102C6000456D0E4C25400C682C437500AB430D8917
:102C70002D041D430A4B984205D00A4B984202D0BE
:102C8000094B984203D14B69B2431B021A4342607D
:102C9000446549688165056270BD00008FFFFEFFD5
:102CA000002C0140004401400048014070B5046A16
:102CB000026A01231B059A4302624268436D104D6C
:102CC0002B400D682D021D4301235B059C430B899E
:102CD0001E050C4B2643984205D00B4B984202D060
:102CE0000A4B984206D101241346A4044A69A3431F
:102CF00092021A43426045654968C165066270BD2B
:102D0000FF8FFFFE002C01400044014000480140BD
:102D100030B5036A046A6408640004628469F025BB
:102D2000AC43120122430A24A3430B438261036292
:102D300030BD30B5046A036A1025AB430362836972
:102D40000F252D031203AB431A43A0239C43090113
:102D500021438261016230BDF8B50446416E4034C2
:102D6000002915D000688168806809014D0F0A4E5E
:102D7000400F3746315C083F385CC000FDF7BAF9B8
:102D80006085785D715DC000FDF7B4F92085F8BD00
:102D900001206085FAE700006833000810B5018D56
:102DA000090707D501684A680123DB039A43836B4F
:102DB0001A434A60018DC90707D001684A68012398
:102DC0005B049A43C36A1A434A60018D890707D599
:102DD00001684A6801231B049A43036B1A434A6043
:102DE000018D490707D501684A6801239B049A436E
:102DF000436B1A434A60018DC90607D50268916882
:102E000001231B039943C36B19439160018D89060C
:102E100007D501688A6801235B039A43036C1A4350
:102E20008A60018D490612D503685A680121090597
:102E3000446C8A4322435A60426C8A4207D102683A
:102E4000516803235B059943836C19435160018DDD
:102E5000090607D501684A680123DB04C06C9A4360
:102E600002434A6010BD0000FEB5054600268035CD
:102E700004462E61FDF75EFD019020680068202762
:102E80000007002817DA2548009000223904204660
:102E9000019B00F07DF900280DD0EFF31080012197
:102EA00081F3108821680A6880239A430A6080F3BE
:102EB0001088AF6028E020680068400727D51748D1
:102EC00000900121002289052046019B00F060F955
:102ED00000281CD0EFF31080012181F310882168B5
:102EE0000A68FF2321339A430A6080F31088EFF3C6
:102EF0001080012181F3108821688A6852085200ED
:102F00008A6080F31088EF602E710320FEBDAF60F1
:102F1000EF60E66626672E710020FEBDFFFFFF0111
:102F200010B5EFF31081012282F310880268136854
:102F3000FF242134A343136081F31088EFF3108141
:102F4000012282F31088026893680D4C234093603D
:102F500081F31088C16E01290BD1EFF3108101229A
:102F600082F31088026813681024A343136081F36E
:102F7000108820228C210A500021C166416710BDB3
:102F8000FEFFFFEFF8B50446016880682369E56934
:102F90001843636900262B431843734A0B68734D2B
:102FA0002B4003430B602068416803231B039943B4
:102FB000E368194341602168A069914201D0236A06
:102FC00018438B686A4D2B4003438B602068C16AAD
:102FD000636A090909011943C162664923686648A1
:102FE0008B420AD140698007800F09D001282CD07C
:102FF000022828D0032816D113E060498B4201D162
:10300000002111E093420ED141690320800201406A
:103010000AD001208002091A17D0091A13D0814260
:1030200001D1082100E010210120554D554FC0036A
:1030300093423DD100290AD0022911D0042909D098
:10304000082934D10BE00221EEE70421ECE7FEF77A
:1030500001F801E0FEF712F8050001D179E005461C
:10306000606A4000395A28460091FDF743F86768C6
:1030700079007918814267D83903814264D30023EB
:1030800028461946009AFDF74BF8020E0902030282
:10309000780811431818002251413A460023FDF7E1
:1030A0003FF803210902384A411A91424FD94BE0B7
:1030B000E269824227D1002906D0022907D00429DB
:1030C00007D0082940D108E0FDF7C4FF03E02846F7
:1030D00003E0FDF7D3FF00283BD0616A4900795A2D
:1030E000FDF708F8616840004A088018FDF702F80B
:1030F0000146264A1039914226D8511C014000074A
:10310000400F084323E0002906D0022907D00429F4
:1031100007D0082918D108E0FDF79CFF03E02846F6
:1031200003E0FDF7ABFF002813D0616A4900795A2C
:10313000FCF7E0FF61684A088018FCF7DBFF0146F6
:10314000124A1039914201D9012602E080B2216869
:10315000C86020460121403041850185002060671C
:10316000A0673046F8BD000000800040F369FFCF43
:10317000FFF4FF11003801404010024000440040BD
:103180000024F40048330008FFFC0F00EFFF0000AC
:10319000FFB581B005460E46044680350A9F32E0F1
:1031A000781C30D0FDF7C6FB0499401AB84218D8F5
:1031B000002F16D020680168490724D5802E22D020
:1031C000402E20D0C169C94309070CD408260662E5
:1031D0002046FFF7A5FE2E6100202871012005B0D2
:1031E000F0BD0320FBE7C069C04300050BD40120FC
:1031F0002168C00208622046FFF792FE2020286165
:1032000000202871EDE72068C1693046884305D069
:10321000002103988142C3D00020E0E70121F8E7B4
:1032200010B5024A024900F036F810BDB532000868
:10323000100000208307FF22DB0E9A408907090E49
:103240009940002808DB830809489B001B18186870
:1032500090430843186070470007000F0838830840
:1032600004489B001B18D86990430843D8617047F5
:1032700000E400E000ED00E002E008C8121F08C111
:10328000002AFAD170477047002001E001C1121FE7
:10329000002AFBD17047F8B516460F4604460025B4
:1032A00003E03946B047641C6D1C20780028F8D133
:1032B0002846F8BD13B5044B012269460348FEF7C2
:1032C000B3FE00981CBD0000FFFF0000600100205D
:1032D000FDF724FCFFF72FFBFEF760FFFEF726FF4C
:1032E000FEF79EFFFEF7C8FFFFF702F9FEF7FCFFAF
:1032F000FFF770F8FFF7C6F8FFF71CF8FFF71CFAA6
:103300000D4C0E4D2611FF20FCF794FF0120FDF718
:103310004BFA2046FCF78EFF0120FDF745FA2846C0
:10332000FCF788FF0120FDF73FFA3046FCF782FFEB
:1033300003A0FFF775FFE6E70AFF0000FA0F0000A1
:1033400061616161610D0A00010002000400060074
:1033500008000A000C00100020004000800000015E
:103360000101010307010000080402040801010132
:10337000000000000000000000000000000000004D
:10338000000000000000000000000000000000003D
:103390000100000002000000030000000400000023
:1033A00006000000070000000800000009000000FF
:1033B000000000000000000000000000000000000D
:1033C00001000000020000000300000004000000F3
:1033D000F0330008000000201400000078320008DC
:1033E000043400081400002074070000883200082C
:1033F0000100000004000000000000000024F400B0
:0434000000000000C8
:04000005080000C12E
:00000001FF
