:03000000020252A7
:0C025200787FE4F6D8FD75810D0201A74D
:10015E007F2A7E00120275E4FFFE1202487F1A7E8D
:10016E0000120248E4FFFE1202487F697E0012026E
:10017E00487F2B7E00120275E4FFFE1202487F01BB
:10018E007E00120248E4FFFE1202487FA07E00129B
:09019E0002487F2C7E000202756C
:0401ED008E088F09E0
:1001F10012015E750A32750B00E508FF7E001202DE
:1002010048AF09AE08120248E50B150B7002150A3A
:0B021100D3E50B9400E50A940050DEDA
:01021C0022BF
:1001A700120003E4FFFE1201ED12015E7F0F7EF0E5
:1001B7001201ED7FFF7E001201ED7F0A7E00120221
:1001C7001D7F0A7E0F1201ED7F0A7E0012021D7F3E
:1001D700FA7EFF1201ED7F0A7E0012021D7FF07E7C
:0601E7000F1201ED80CDB6
:0B026A0075CED0C295D29375CDC02296
:0C025E008FCFE5CD548060FA75CDC02232
:0A027500C2A0C29212025ED29222D1
:0D023B001202757F051202487F3C12024836
:0A024800D2A0C29212025ED29222EE
:1000030012026AD2CC7F057E0012021DC2CC7F058C
:100013007E0012021DD2CC7F147E0012021D7F11BE
:100023007E001202757F7812021D7FB17E001202DC
:100033003B7FB212023B7FB312023B12023E7FB4FC
:100043001202757F031202487FC01202757F2812C5
:1000530002487F081202487F041202487FC112023D
:10006300751F1202487FC21202757F0D120248E407
:10007300FF1202487FC31202757F8D1202487F2A46
:100083001202487FC41202757F8D1202487FEE125E
:1000930002487FC51202757F1A1202487F36120288
:1000A300757FC01202487FE01202757F0412024876
:1000B3007F221202487F071202487F0A1202487FFA
:1000C3002E1202487F301202487F251202487F2AEF
:1000D3001202487F281202487F261202487F2E12FE
:1000E30002487F3A120248E4FF1202480F12024804
:1000F3007F031202487F131202487FE11202757FC9
:10010300041202487F161202487F061202487F0D2E
:100113001202487F2D1202487F261202487F2312C3
:1001230002487F271202481202487F251202487FA5
:100133002D1202487F3B120248E4FF1202480F12BD
:1001430002487F041202487F131202487F3A1202C8
:0B015300757F051202487F290202752B
:10021D00D3EF9400EE940040147D407C06ED1D70EC
:0D022D00011CED4C70F7EF1F70E61E80E322
:01023A0022A1
:00000001FF
